{
  "contractName": "TransferContract",
  "abi": [
    {
      "inputs": [
        {
          "internalType": "address payable",
          "name": "_accountAddress",
          "type": "address"
        },
        {
          "internalType": "uint256",
          "name": "_percent",
          "type": "uint256"
        }
      ],
      "name": "addTransfer",
      "outputs": [],
      "stateMutability": "nonpayable",
      "type": "function"
    },
    {
      "inputs": [],
      "name": "viewAccountsTransfer",
      "outputs": [
        {
          "components": [
            {
              "internalType": "address payable",
              "name": "accountAddress",
              "type": "address"
            },
            {
              "internalType": "uint256",
              "name": "percent",
              "type": "uint256"
            }
          ],
          "internalType": "struct TransferContract.transferManagement[]",
          "name": "",
          "type": "tuple[]"
        }
      ],
      "stateMutability": "view",
      "type": "function"
    },
    {
      "inputs": [
        {
          "internalType": "address payable",
          "name": "_accountAddress",
          "type": "address"
        }
      ],
      "name": "removeTransferByAddress",
      "outputs": [],
      "stateMutability": "nonpayable",
      "type": "function"
    }
  ],
  "bytecode": "0x608060405234801561001057600080fd5b50610b39806100206000396000f3fe608060405234801561001057600080fd5b50600436106100415760003560e01c80633ac07a2d146100465780634911ed5d14610062578063cbbe89bf14610080575b600080fd5b610060600480360381019061005b91906105d0565b61009c565b005b61006a610263565b6040516100779190610703565b60405180910390f35b61009a60048036038101906100959190610751565b610322565b005b60005b60008054905081101561025f578173ffffffffffffffffffffffffffffffffffffffff16600082815481106100d7576100d6610791565b5b906000526020600020906002020160000160009054906101000a900473ffffffffffffffffffffffffffffffffffffffff1673ffffffffffffffffffffffffffffffffffffffff160361024c576000600160008054905061013891906107ef565b8154811061014957610148610791565b5b90600052602060002090600202016000828154811061016b5761016a610791565b5b90600052602060002090600202016000820160009054906101000a900473ffffffffffffffffffffffffffffffffffffffff168160000160006101000a81548173ffffffffffffffffffffffffffffffffffffffff021916908373ffffffffffffffffffffffffffffffffffffffff1602179055506001820154816001015590505060008054806101ff576101fe610823565b5b6001900381819060005260206000209060020201600080820160006101000a81549073ffffffffffffffffffffffffffffffffffffffff021916905560018201600090555050905561025f565b808061025790610852565b91505061009f565b5050565b60606000805480602002602001604051908101604052809291908181526020016000905b8282101561031957838290600052602060002090600202016040518060400160405290816000820160009054906101000a900473ffffffffffffffffffffffffffffffffffffffff1673ffffffffffffffffffffffffffffffffffffffff1673ffffffffffffffffffffffffffffffffffffffff16815260200160018201548152505081526020019060010190610287565b50505050905090565b6064811115610366576040517f08c379a000000000000000000000000000000000000000000000000000000000815260040161035d9061091d565b60405180910390fd5b600081905060005b600080549050811015610474576000818154811061038f5761038e610791565b5b906000526020600020906002020160010154826103ac919061093d565b9150600081815481106103c2576103c1610791565b5b906000526020600020906002020160000160009054906101000a900473ffffffffffffffffffffffffffffffffffffffff1673ffffffffffffffffffffffffffffffffffffffff168473ffffffffffffffffffffffffffffffffffffffff1603610461576040517f08c379a000000000000000000000000000000000000000000000000000000000815260040161045890610a51565b60405180910390fd5b808061046c90610852565b91505061036e565b5060648111156104b9576040517f08c379a00000000000000000000000000000000000000000000000000000000081526004016104b090610ae3565b60405180910390fd5b600060405180604001604052808573ffffffffffffffffffffffffffffffffffffffff168152602001848152509050600081908060018154018082558091505060019003906000526020600020906002020160009091909190915060008201518160000160006101000a81548173ffffffffffffffffffffffffffffffffffffffff021916908373ffffffffffffffffffffffffffffffffffffffff16021790555060208201518160010155505050505050565b600080fd5b600073ffffffffffffffffffffffffffffffffffffffff82169050919050565b600061059d82610572565b9050919050565b6105ad81610592565b81146105b857600080fd5b50565b6000813590506105ca816105a4565b92915050565b6000602082840312156105e6576105e561056d565b5b60006105f4848285016105bb565b91505092915050565b600081519050919050565b600082825260208201905092915050565b6000819050602082019050919050565b61063281610592565b82525050565b6000819050919050565b61064b81610638565b82525050565b6040820160008201516106676000850182610629565b50602082015161067a6020850182610642565b50505050565b600061068c8383610651565b60408301905092915050565b6000602082019050919050565b60006106b0826105fd565b6106ba8185610608565b93506106c583610619565b8060005b838110156106f65781516106dd8882610680565b97506106e883610698565b9250506001810190506106c9565b5085935050505092915050565b6000602082019050818103600083015261071d81846106a5565b905092915050565b61072e81610638565b811461073957600080fd5b50565b60008135905061074b81610725565b92915050565b600080604083850312156107685761076761056d565b5b6000610776858286016105bb565b92505060206107878582860161073c565b9150509250929050565b7f4e487b7100000000000000000000000000000000000000000000000000000000600052603260045260246000fd5b7f4e487b7100000000000000000000000000000000000000000000000000000000600052601160045260246000fd5b60006107fa82610638565b915061080583610638565b925082821015610818576108176107c0565b5b828203905092915050565b7f4e487b7100000000000000000000000000000000000000000000000000000000600052603160045260246000fd5b600061085d82610638565b91507fffffffffffffffffffffffffffffffffffffffffffffffffffffffffffffffff820361088f5761088e6107c0565b5b600182019050919050565b600082825260208201905092915050565b7f4120706f7263656e746167656d206e616f20706f646520736572206d61696f7260008201527f2071756520313030000000000000000000000000000000000000000000000000602082015250565b600061090760288361089a565b9150610912826108ab565b604082019050919050565b60006020820190508181036000830152610936816108fa565b9050919050565b600061094882610638565b915061095383610638565b9250827fffffffffffffffffffffffffffffffffffffffffffffffffffffffffffffffff03821115610988576109876107c0565b5b828201905092915050565b7f4120636f6e7461206573636f6c68696461206a6120706f737375692076616c6f60008201527f726573206465207472616e73666572656e636961207265676973747261646f7360208201527f2e20506172612061646963696f6e617220756d206e6f766f2076616c6f72207260408201527f656d6f7661206f2076616c6f7220616e746572696f7220000000000000000000606082015250565b6000610a3b60778361089a565b9150610a4682610993565b608082019050919050565b60006020820190508181036000830152610a6a81610a2e565b9050919050565b7f4f20746f74616c20646520706f7263656e746167656d206568206d61696f722060008201527f3130300000000000000000000000000000000000000000000000000000000000602082015250565b6000610acd60238361089a565b9150610ad882610a71565b604082019050919050565b60006020820190508181036000830152610afc81610ac0565b905091905056fea2646970667358221220d01f5d57df5fcb3c1b7d7634b95485cde777046f46ac03bd7041aad71a2a4e2064736f6c634300080d0033",
  "immutableReferences": {},
  "source": "// SPDX-License-Identifier: MIT\n\npragma solidity >=0.8.13;\n\ncontract TransferContract {\n    struct transferManagement {\n        address payable accountAddress;\n        uint percent;\n    }\n\n    transferManagement[] listAccountTransfer;\n\n    function addTransfer(\n        address payable _accountAddress,\n        uint _percent\n    ) public {\n        require(_percent <= 100, \"A porcentagem nao pode ser maior que 100\");\n\n        uint newTotalPercent = _percent;\n        for (uint i = 0; i < listAccountTransfer.length; i++) {\n            newTotalPercent += listAccountTransfer[i].percent;\n            require(\n                _accountAddress != listAccountTransfer[i].accountAddress,\n                \"A conta escolhida ja possui valores de transferencia registrados. Para adicionar um novo valor remova o valor anterior \"\n            );\n        }\n\n        require(newTotalPercent <= 100, \"O total de porcentagem eh maior 100\");\n\n        transferManagement memory newTransfer = transferManagement(\n            _accountAddress,\n            _percent\n        );\n        listAccountTransfer.push(newTransfer);\n    }\n\n    function viewAccountsTransfer()\n        public\n        view\n        returns (transferManagement[] memory)\n    {\n        return listAccountTransfer;\n    }\n\n    function removeTransferByAddress(address payable _accountAddress) public {\n        for (uint i = 0; i < listAccountTransfer.length; i++) {\n            if (listAccountTransfer[i].accountAddress == _accountAddress) {\n                listAccountTransfer[i] = listAccountTransfer[\n                    listAccountTransfer.length - 1\n                ];\n                listAccountTransfer.pop();\n                break;\n            }\n        }\n    }\n}\n",
  "sourcePath": "C:\\Users\\rendr_eetxetv\\OneDrive\\rea de Trabalho\\Contract_StreamingChain\\contracts\\transferContract.sol",
  "compiler": {
    "name": "solc",
    "version": "0.8.13+commit.abaa5c0e.Emscripten.clang"
  },
  "schemaVersion": "3.4.14",
  "updatedAt": "2023-08-30T23:34:31.359Z",
  "devdoc": {
    "kind": "dev",
    "methods": {},
    "version": 1
  },
  "userdoc": {
    "kind": "user",
    "methods": {},
    "version": 1
  }
}