{
  "contractName": "VideoContract",
  "abi": [
    {
      "inputs": [
        {
          "internalType": "address payable",
          "name": "_contentCreatorAddress",
          "type": "address"
        },
        {
          "internalType": "uint256",
          "name": "_cpmValue",
          "type": "uint256"
        }
      ],
      "stateMutability": "payable",
      "type": "constructor"
    },
    {
      "inputs": [],
      "name": "owner",
      "outputs": [
        {
          "internalType": "address payable",
          "name": "",
          "type": "address"
        }
      ],
      "stateMutability": "view",
      "type": "function"
    },
    {
      "stateMutability": "payable",
      "type": "receive"
    },
    {
      "inputs": [
        {
          "internalType": "address payable",
          "name": "_accountAddress",
          "type": "address"
        },
        {
          "internalType": "uint256",
          "name": "_percent",
          "type": "uint256"
        }
      ],
      "name": "addTransfer",
      "outputs": [],
      "stateMutability": "nonpayable",
      "type": "function"
    },
    {
      "inputs": [],
      "name": "viewAccountsTransfer",
      "outputs": [
        {
          "components": [
            {
              "internalType": "address payable",
              "name": "accountAddress",
              "type": "address"
            },
            {
              "internalType": "uint256",
              "name": "percent",
              "type": "uint256"
            }
          ],
          "internalType": "struct TransferContract.transferManagement[]",
          "name": "",
          "type": "tuple[]"
        }
      ],
      "stateMutability": "view",
      "type": "function"
    },
    {
      "inputs": [
        {
          "internalType": "address payable",
          "name": "_accountAddress",
          "type": "address"
        }
      ],
      "name": "removeTransferByAddress",
      "outputs": [],
      "stateMutability": "nonpayable",
      "type": "function"
    },
    {
      "inputs": [],
      "name": "getInfoVideo",
      "outputs": [
        {
          "components": [
            {
              "internalType": "uint256",
              "name": "totalViews",
              "type": "uint256"
            },
            {
              "internalType": "uint256",
              "name": "retentionRate",
              "type": "uint256"
            },
            {
              "internalType": "uint256",
              "name": "totalViewingTime",
              "type": "uint256"
            },
            {
              "internalType": "address payable",
              "name": "contentCreatorAddress",
              "type": "address"
            },
            {
              "internalType": "address payable",
              "name": "platformAddress",
              "type": "address"
            }
          ],
          "internalType": "struct VideoContract.videoStruct",
          "name": "",
          "type": "tuple"
        }
      ],
      "stateMutability": "view",
      "type": "function"
    },
    {
      "inputs": [],
      "name": "getTotalView",
      "outputs": [
        {
          "internalType": "uint256",
          "name": "",
          "type": "uint256"
        }
      ],
      "stateMutability": "view",
      "type": "function"
    },
    {
      "inputs": [],
      "name": "getRetentionRate",
      "outputs": [
        {
          "internalType": "uint256",
          "name": "",
          "type": "uint256"
        }
      ],
      "stateMutability": "view",
      "type": "function"
    },
    {
      "inputs": [],
      "name": "getTotalViewingTime",
      "outputs": [
        {
          "internalType": "uint256",
          "name": "",
          "type": "uint256"
        }
      ],
      "stateMutability": "view",
      "type": "function"
    },
    {
      "inputs": [
        {
          "internalType": "uint256",
          "name": "assistedTime",
          "type": "uint256"
        }
      ],
      "name": "updateInfoVideo",
      "outputs": [],
      "stateMutability": "nonpayable",
      "type": "function"
    },
    {
      "inputs": [],
      "name": "balanceOf",
      "outputs": [
        {
          "internalType": "uint256",
          "name": "",
          "type": "uint256"
        }
      ],
      "stateMutability": "view",
      "type": "function"
    },
    {
      "inputs": [],
      "name": "notifyLowBalance",
      "outputs": [
        {
          "internalType": "bool",
          "name": "",
          "type": "bool"
        }
      ],
      "stateMutability": "view",
      "type": "function"
    }
  ],
  "bytecode": "0x6080604052600060015560006002556040516200223a3803806200223a833981810160405281019062000033919062000249565b336000806101000a81548173ffffffffffffffffffffffffffffffffffffffff021916908373ffffffffffffffffffffffffffffffffffffffff160217905550600060036000018190555060006003600101819055506000600360020181905550816003800160006101000a81548173ffffffffffffffffffffffffffffffffffffffff021916908373ffffffffffffffffffffffffffffffffffffffff16021790555033600360040160006101000a81548173ffffffffffffffffffffffffffffffffffffffff021916908373ffffffffffffffffffffffffffffffffffffffff16021790555080600281905550604051620001309062000196565b604051809103906000f0801580156200014d573d6000803e3d6000fd5b50600860006101000a81548173ffffffffffffffffffffffffffffffffffffffff021916908373ffffffffffffffffffffffffffffffffffffffff160217905550505062000290565b610b5980620016e183390190565b600080fd5b600073ffffffffffffffffffffffffffffffffffffffff82169050919050565b6000620001d682620001a9565b9050919050565b620001e881620001c9565b8114620001f457600080fd5b50565b6000815190506200020881620001dd565b92915050565b6000819050919050565b62000223816200020e565b81146200022f57600080fd5b50565b600081519050620002438162000218565b92915050565b60008060408385031215620002635762000262620001a4565b5b60006200027385828601620001f7565b9250506020620002868582860162000232565b9150509250929050565b61144180620002a06000396000f3fe6080604052600436106100a05760003560e01c80637a372f6c116100645780637a372f6c146101815780638da5cb5b146101aa578063bcb377db146101d5578063cbbe89bf14610200578063ecceb9d514610229578063fcbc1c2b14610254576100a7565b80633ac07a2d146100ac5780634911ed5d146100d55780634a729b1a146101005780636cfee2c01461012b578063722713f714610156576100a7565b366100a757005b600080fd5b3480156100b857600080fd5b506100d360048036038101906100ce9190610bf3565b61027f565b005b3480156100e157600080fd5b506100ea61039d565b6040516100f79190610d26565b60405180910390f35b34801561010c57600080fd5b5061011561043a565b6040516101229190610d63565b60405180910390f35b34801561013757600080fd5b50610140610451565b60405161014d9190610de6565b60405180910390f35b34801561016257600080fd5b5061016b610535565b6040516101789190610e10565b60405180910390f35b34801561018d57600080fd5b506101a860048036038101906101a39190610e57565b61053d565b005b3480156101b657600080fd5b506101bf61066b565b6040516101cc9190610e93565b60405180910390f35b3480156101e157600080fd5b506101ea61068f565b6040516101f79190610e10565b60405180910390f35b34801561020c57600080fd5b5061022760048036038101906102229190610eae565b61069c565b005b34801561023557600080fd5b5061023e6107bd565b60405161024b9190610e10565b60405180910390f35b34801561026057600080fd5b506102696107ca565b6040516102769190610e10565b60405180910390f35b60008054906101000a900473ffffffffffffffffffffffffffffffffffffffff1673ffffffffffffffffffffffffffffffffffffffff163373ffffffffffffffffffffffffffffffffffffffff161461030d576040517f08c379a000000000000000000000000000000000000000000000000000000000815260040161030490610f4b565b60405180910390fd5b600860009054906101000a900473ffffffffffffffffffffffffffffffffffffffff1673ffffffffffffffffffffffffffffffffffffffff16633ac07a2d826040518263ffffffff1660e01b81526004016103689190610e93565b600060405180830381600087803b15801561038257600080fd5b505af1158015610396573d6000803e3d6000fd5b5050505050565b6060600860009054906101000a900473ffffffffffffffffffffffffffffffffffffffff1673ffffffffffffffffffffffffffffffffffffffff16634911ed5d6040518163ffffffff1660e01b8152600401600060405180830381865afa15801561040c573d6000803e3d6000fd5b505050506040513d6000823e3d601f19601f820116820180604052508101906104359190611143565b905090565b600080670de0b6b3a7640000905080471091505090565b610459610b26565b60036040518060a00160405290816000820154815260200160018201548152602001600282015481526020016003820160009054906101000a900473ffffffffffffffffffffffffffffffffffffffff1673ffffffffffffffffffffffffffffffffffffffff1673ffffffffffffffffffffffffffffffffffffffff1681526020016004820160009054906101000a900473ffffffffffffffffffffffffffffffffffffffff1673ffffffffffffffffffffffffffffffffffffffff1673ffffffffffffffffffffffffffffffffffffffff1681525050905090565b600047905090565b60008054906101000a900473ffffffffffffffffffffffffffffffffffffffff1673ffffffffffffffffffffffffffffffffffffffff163373ffffffffffffffffffffffffffffffffffffffff16146105cb576040517f08c379a00000000000000000000000000000000000000000000000000000000081526004016105c290610f4b565b60405180910390fd5b600060016003600001546105df91906111bb565b9050600081836003600101546105f591906111bb565b6105ff9190611240565b905060008360036002015461061491906111bb565b90508260036000018190555081600360010181905550806003600201819055506001805461064291906111bb565b60018190555060056001540361066557600060018190555061066460016107d7565b5b50505050565b60008054906101000a900473ffffffffffffffffffffffffffffffffffffffff1681565b6000600360020154905090565b60008054906101000a900473ffffffffffffffffffffffffffffffffffffffff1673ffffffffffffffffffffffffffffffffffffffff163373ffffffffffffffffffffffffffffffffffffffff161461072a576040517f08c379a000000000000000000000000000000000000000000000000000000000815260040161072190610f4b565b60405180910390fd5b600860009054906101000a900473ffffffffffffffffffffffffffffffffffffffff1673ffffffffffffffffffffffffffffffffffffffff1663cbbe89bf83836040518363ffffffff1660e01b8152600401610787929190611271565b600060405180830381600087803b1580156107a157600080fd5b505af11580156107b5573d6000803e3d6000fd5b505050505050565b6000600360000154905090565b6000600360010154905090565b60008054906101000a900473ffffffffffffffffffffffffffffffffffffffff1673ffffffffffffffffffffffffffffffffffffffff163373ffffffffffffffffffffffffffffffffffffffff1614610865576040517f08c379a000000000000000000000000000000000000000000000000000000000815260040161085c90610f4b565b60405180910390fd5b600081116108a8576040517f08c379a000000000000000000000000000000000000000000000000000000000815260040161089f906112e6565b60405180910390fd5b600080600860009054906101000a900473ffffffffffffffffffffffffffffffffffffffff1673ffffffffffffffffffffffffffffffffffffffff16634911ed5d6040518163ffffffff1660e01b8152600401600060405180830381865afa158015610918573d6000803e3d6000fd5b505050506040513d6000823e3d601f19601f820116820180604052508101906109419190611143565b905060005b815181101561098e5781818151811061096257610961611306565b5b6020026020010151602001518361097991906111bb565b9250808061098690611335565b915050610946565b506000805b8251811015610a625760008382815181106109b1576109b0611306565b5b60200260200101519050600061271060648360200151600a8a6109d4919061137d565b6109de919061137d565b6109e8919061137d565b6109f29190611240565b9050816000015173ffffffffffffffffffffffffffffffffffffffff166108fc829081150290604051600060405180830381858888f19350505050158015610a3e573d6000803e3d6000fd5b508084610a4b91906111bb565b935050508080610a5a90611335565b915050610993565b506000836064610a7291906113d7565b90506000811115610b1f576000612710606483600a89610a92919061137d565b610a9c919061137d565b610aa6919061137d565b610ab09190611240565b90506003800160009054906101000a900473ffffffffffffffffffffffffffffffffffffffff1673ffffffffffffffffffffffffffffffffffffffff166108fc829081150290604051600060405180830381858888f19350505050158015610b1c573d6000803e3d6000fd5b50505b5050505050565b6040518060a00160405280600081526020016000815260200160008152602001600073ffffffffffffffffffffffffffffffffffffffff168152602001600073ffffffffffffffffffffffffffffffffffffffff1681525090565b6000604051905090565b600080fd5b600080fd5b600073ffffffffffffffffffffffffffffffffffffffff82169050919050565b6000610bc082610b95565b9050919050565b610bd081610bb5565b8114610bdb57600080fd5b50565b600081359050610bed81610bc7565b92915050565b600060208284031215610c0957610c08610b8b565b5b6000610c1784828501610bde565b91505092915050565b600081519050919050565b600082825260208201905092915050565b6000819050602082019050919050565b610c5581610bb5565b82525050565b6000819050919050565b610c6e81610c5b565b82525050565b604082016000820151610c8a6000850182610c4c565b506020820151610c9d6020850182610c65565b50505050565b6000610caf8383610c74565b60408301905092915050565b6000602082019050919050565b6000610cd382610c20565b610cdd8185610c2b565b9350610ce883610c3c565b8060005b83811015610d19578151610d008882610ca3565b9750610d0b83610cbb565b925050600181019050610cec565b5085935050505092915050565b60006020820190508181036000830152610d408184610cc8565b905092915050565b60008115159050919050565b610d5d81610d48565b82525050565b6000602082019050610d786000830184610d54565b92915050565b60a082016000820151610d946000850182610c65565b506020820151610da76020850182610c65565b506040820151610dba6040850182610c65565b506060820151610dcd6060850182610c4c565b506080820151610de06080850182610c4c565b50505050565b600060a082019050610dfb6000830184610d7e565b92915050565b610e0a81610c5b565b82525050565b6000602082019050610e256000830184610e01565b92915050565b610e3481610c5b565b8114610e3f57600080fd5b50565b600081359050610e5181610e2b565b92915050565b600060208284031215610e6d57610e6c610b8b565b5b6000610e7b84828501610e42565b91505092915050565b610e8d81610bb5565b82525050565b6000602082019050610ea86000830184610e84565b92915050565b60008060408385031215610ec557610ec4610b8b565b5b6000610ed385828601610bde565b9250506020610ee485828601610e42565b9150509250929050565b600082825260208201905092915050565b7f566f6365206e616f206520646f6e6f20646f20636f6e747261746f0000000000600082015250565b6000610f35601b83610eee565b9150610f4082610eff565b602082019050919050565b60006020820190508181036000830152610f6481610f28565b9050919050565b600080fd5b6000601f19601f8301169050919050565b7f4e487b7100000000000000000000000000000000000000000000000000000000600052604160045260246000fd5b610fb982610f70565b810181811067ffffffffffffffff82111715610fd857610fd7610f81565b5b80604052505050565b6000610feb610b81565b9050610ff78282610fb0565b919050565b600067ffffffffffffffff82111561101757611016610f81565b5b602082029050602081019050919050565b600080fd5b600080fd5b60008151905061104181610bc7565b92915050565b60008151905061105681610e2b565b92915050565b6000604082840312156110725761107161102d565b5b61107c6040610fe1565b9050600061108c84828501611032565b60008301525060206110a084828501611047565b60208301525092915050565b60006110bf6110ba84610ffc565b610fe1565b905080838252602082019050604084028301858111156110e2576110e1611028565b5b835b8181101561110b57806110f7888261105c565b8452602084019350506040810190506110e4565b5050509392505050565b600082601f83011261112a57611129610f6b565b5b815161113a8482602086016110ac565b91505092915050565b60006020828403121561115957611158610b8b565b5b600082015167ffffffffffffffff81111561117757611176610b90565b5b61118384828501611115565b91505092915050565b7f4e487b7100000000000000000000000000000000000000000000000000000000600052601160045260246000fd5b60006111c682610c5b565b91506111d183610c5b565b9250827fffffffffffffffffffffffffffffffffffffffffffffffffffffffffffffffff038211156112065761120561118c565b5b828201905092915050565b7f4e487b7100000000000000000000000000000000000000000000000000000000600052601260045260246000fd5b600061124b82610c5b565b915061125683610c5b565b92508261126657611265611211565b5b828204905092915050565b60006040820190506112866000830185610e84565b6112936020830184610e01565b9392505050565b7f4f2076616c6f72207072656369736120736572206d61696f7220717565203000600082015250565b60006112d0601f83610eee565b91506112db8261129a565b602082019050919050565b600060208201905081810360008301526112ff816112c3565b9050919050565b7f4e487b7100000000000000000000000000000000000000000000000000000000600052603260045260246000fd5b600061134082610c5b565b91507fffffffffffffffffffffffffffffffffffffffffffffffffffffffffffffffff82036113725761137161118c565b5b600182019050919050565b600061138882610c5b565b915061139383610c5b565b9250817fffffffffffffffffffffffffffffffffffffffffffffffffffffffffffffffff04831182151516156113cc576113cb61118c565b5b828202905092915050565b60006113e282610c5b565b91506113ed83610c5b565b925082821015611400576113ff61118c565b5b82820390509291505056fea264697066735822122009da38bf3aec9a794ffa59e559fe8af0faa9b2a8bc89c6e42e6e8a69a17ae93264736f6c634300080d0033608060405234801561001057600080fd5b50610b39806100206000396000f3fe608060405234801561001057600080fd5b50600436106100415760003560e01c80633ac07a2d146100465780634911ed5d14610062578063cbbe89bf14610080575b600080fd5b610060600480360381019061005b91906105d0565b61009c565b005b61006a610263565b6040516100779190610703565b60405180910390f35b61009a60048036038101906100959190610751565b610322565b005b60005b60008054905081101561025f578173ffffffffffffffffffffffffffffffffffffffff16600082815481106100d7576100d6610791565b5b906000526020600020906002020160000160009054906101000a900473ffffffffffffffffffffffffffffffffffffffff1673ffffffffffffffffffffffffffffffffffffffff160361024c576000600160008054905061013891906107ef565b8154811061014957610148610791565b5b90600052602060002090600202016000828154811061016b5761016a610791565b5b90600052602060002090600202016000820160009054906101000a900473ffffffffffffffffffffffffffffffffffffffff168160000160006101000a81548173ffffffffffffffffffffffffffffffffffffffff021916908373ffffffffffffffffffffffffffffffffffffffff1602179055506001820154816001015590505060008054806101ff576101fe610823565b5b6001900381819060005260206000209060020201600080820160006101000a81549073ffffffffffffffffffffffffffffffffffffffff021916905560018201600090555050905561025f565b808061025790610852565b91505061009f565b5050565b60606000805480602002602001604051908101604052809291908181526020016000905b8282101561031957838290600052602060002090600202016040518060400160405290816000820160009054906101000a900473ffffffffffffffffffffffffffffffffffffffff1673ffffffffffffffffffffffffffffffffffffffff1673ffffffffffffffffffffffffffffffffffffffff16815260200160018201548152505081526020019060010190610287565b50505050905090565b6064811115610366576040517f08c379a000000000000000000000000000000000000000000000000000000000815260040161035d9061091d565b60405180910390fd5b600081905060005b600080549050811015610474576000818154811061038f5761038e610791565b5b906000526020600020906002020160010154826103ac919061093d565b9150600081815481106103c2576103c1610791565b5b906000526020600020906002020160000160009054906101000a900473ffffffffffffffffffffffffffffffffffffffff1673ffffffffffffffffffffffffffffffffffffffff168473ffffffffffffffffffffffffffffffffffffffff1603610461576040517f08c379a000000000000000000000000000000000000000000000000000000000815260040161045890610a51565b60405180910390fd5b808061046c90610852565b91505061036e565b5060648111156104b9576040517f08c379a00000000000000000000000000000000000000000000000000000000081526004016104b090610ae3565b60405180910390fd5b600060405180604001604052808573ffffffffffffffffffffffffffffffffffffffff168152602001848152509050600081908060018154018082558091505060019003906000526020600020906002020160009091909190915060008201518160000160006101000a81548173ffffffffffffffffffffffffffffffffffffffff021916908373ffffffffffffffffffffffffffffffffffffffff16021790555060208201518160010155505050505050565b600080fd5b600073ffffffffffffffffffffffffffffffffffffffff82169050919050565b600061059d82610572565b9050919050565b6105ad81610592565b81146105b857600080fd5b50565b6000813590506105ca816105a4565b92915050565b6000602082840312156105e6576105e561056d565b5b60006105f4848285016105bb565b91505092915050565b600081519050919050565b600082825260208201905092915050565b6000819050602082019050919050565b61063281610592565b82525050565b6000819050919050565b61064b81610638565b82525050565b6040820160008201516106676000850182610629565b50602082015161067a6020850182610642565b50505050565b600061068c8383610651565b60408301905092915050565b6000602082019050919050565b60006106b0826105fd565b6106ba8185610608565b93506106c583610619565b8060005b838110156106f65781516106dd8882610680565b97506106e883610698565b9250506001810190506106c9565b5085935050505092915050565b6000602082019050818103600083015261071d81846106a5565b905092915050565b61072e81610638565b811461073957600080fd5b50565b60008135905061074b81610725565b92915050565b600080604083850312156107685761076761056d565b5b6000610776858286016105bb565b92505060206107878582860161073c565b9150509250929050565b7f4e487b7100000000000000000000000000000000000000000000000000000000600052603260045260246000fd5b7f4e487b7100000000000000000000000000000000000000000000000000000000600052601160045260246000fd5b60006107fa82610638565b915061080583610638565b925082821015610818576108176107c0565b5b828203905092915050565b7f4e487b7100000000000000000000000000000000000000000000000000000000600052603160045260246000fd5b600061085d82610638565b91507fffffffffffffffffffffffffffffffffffffffffffffffffffffffffffffffff820361088f5761088e6107c0565b5b600182019050919050565b600082825260208201905092915050565b7f4120706f7263656e746167656d206e616f20706f646520736572206d61696f7260008201527f2071756520313030000000000000000000000000000000000000000000000000602082015250565b600061090760288361089a565b9150610912826108ab565b604082019050919050565b60006020820190508181036000830152610936816108fa565b9050919050565b600061094882610638565b915061095383610638565b9250827fffffffffffffffffffffffffffffffffffffffffffffffffffffffffffffffff03821115610988576109876107c0565b5b828201905092915050565b7f4120636f6e7461206573636f6c68696461206a6120706f737375692076616c6f60008201527f726573206465207472616e73666572656e636961207265676973747261646f7360208201527f2e20506172612061646963696f6e617220756d206e6f766f2076616c6f72207260408201527f656d6f7661206f2076616c6f7220616e746572696f7220000000000000000000606082015250565b6000610a3b60778361089a565b9150610a4682610993565b608082019050919050565b60006020820190508181036000830152610a6a81610a2e565b9050919050565b7f4f20746f74616c20646520706f7263656e746167656d206568206d61696f722060008201527f3130300000000000000000000000000000000000000000000000000000000000602082015250565b6000610acd60238361089a565b9150610ad882610a71565b604082019050919050565b60006020820190508181036000830152610afc81610ac0565b905091905056fea2646970667358221220d01f5d57df5fcb3c1b7d7634b95485cde777046f46ac03bd7041aad71a2a4e2064736f6c634300080d0033",
  "immutableReferences": {},
  "source": "// SPDX-License-Identifier: MIT\r\n\r\npragma solidity >=0.8.13;\r\n\r\nimport \"./transferContract.sol\";\r\n\r\ncontract VideoContract {\r\n    address payable public owner;\r\n    uint thousandthView = 0;\r\n    uint cpm = 0;\r\n    struct videoStruct {\r\n        uint totalViews;\r\n        uint retentionRate;\r\n        uint totalViewingTime;\r\n        address payable contentCreatorAddress;\r\n        address payable platformAddress;\r\n    }\r\n    videoStruct videoData;\r\n    TransferContract transferContract; // Referncia para o contrato TransferContract\r\n\r\n    constructor(\r\n        address payable _contentCreatorAddress,\r\n        uint _cpmValue\r\n    ) payable {\r\n        owner = payable(msg.sender);\r\n        videoData.totalViews = 0;\r\n        videoData.retentionRate = 0;\r\n        videoData.totalViewingTime = 0;\r\n        videoData.contentCreatorAddress = payable(_contentCreatorAddress);\r\n        videoData.platformAddress = payable(msg.sender);\r\n        cpm = _cpmValue;\r\n        transferContract = new TransferContract(); // Cria um novo contrato TransferContract\r\n    }\r\n\r\n    modifier onlyBy() {\r\n        require(msg.sender == owner, \"Voce nao e dono do contrato\");\r\n        _;\r\n    }\r\n\r\n    function addTransfer(\r\n        address payable _accountAddress,\r\n        uint _percent\r\n    ) public onlyBy {\r\n        transferContract.addTransfer(_accountAddress, _percent);\r\n    }\r\n\r\n    function viewAccountsTransfer()\r\n        public\r\n        view\r\n        returns (TransferContract.transferManagement[] memory)\r\n    {\r\n        return transferContract.viewAccountsTransfer();\r\n    }\r\n\r\n    function removeTransferByAddress(\r\n        address payable _accountAddress\r\n    ) public onlyBy {\r\n        transferContract.removeTransferByAddress(_accountAddress);\r\n    }\r\n\r\n    function getInfoVideo() public view returns (videoStruct memory) {\r\n        return videoData;\r\n    }\r\n\r\n    function getTotalView() public view returns (uint) {\r\n        return videoData.totalViews;\r\n    }\r\n\r\n    function getRetentionRate() public view returns (uint) {\r\n        return videoData.retentionRate;\r\n    }\r\n\r\n    function getTotalViewingTime() public view returns (uint) {\r\n        return videoData.totalViewingTime;\r\n    }\r\n\r\n    function updateInfoVideo(uint assistedTime) public onlyBy {\r\n        uint _totalview = videoData.totalViews + 1;\r\n        uint _retentionRate = (videoData.retentionRate + assistedTime) /\r\n            _totalview;\r\n        uint _totalViewingTime = videoData.totalViewingTime + assistedTime;\r\n\r\n        videoData.totalViews = _totalview;\r\n        videoData.retentionRate = _retentionRate;\r\n        videoData.totalViewingTime = _totalViewingTime;\r\n\r\n        thousandthView = thousandthView + 1;\r\n\r\n        if (thousandthView == 5) {\r\n            thousandthView = 0;\r\n            makePayment(1);\r\n        }\r\n    }\r\n\r\n    function makePayment(uint _value) private onlyBy {\r\n        require(_value > 0, \"O valor precisa ser maior que 0\");\r\n\r\n        uint totalPercent = 0;\r\n\r\n        TransferContract.transferManagement[]\r\n            memory transferList = transferContract.viewAccountsTransfer();\r\n        for (uint i = 0; i < transferList.length; i++) {\r\n            totalPercent += transferList[i].percent;\r\n        }\r\n\r\n        uint totalPayments = 0;\r\n\r\n        for (uint i = 0; i < transferList.length; i++) {\r\n            TransferContract.transferManagement memory transfer = transferList[\r\n                i\r\n            ];\r\n            uint paymentAmount = (_value * 10 * transfer.percent * 100) / 10000;\r\n\r\n            transfer.accountAddress.transfer(paymentAmount);\r\n            totalPayments += paymentAmount;\r\n        }\r\n\r\n        uint remainingPercent = 100 - totalPercent;\r\n\r\n        if (remainingPercent > 0) {\r\n            uint remainingValue = (_value * 10 * remainingPercent * 100) /\r\n                10000;\r\n\r\n            videoData.contentCreatorAddress.transfer(remainingValue);\r\n        }\r\n    }\r\n\r\n    function balanceOf() public view returns (uint) {\r\n        return address(this).balance;\r\n    }\r\n\r\n    function notifyLowBalance() public view returns (bool) {\r\n        uint threshold = 1 ether;\r\n        return address(this).balance < threshold;\r\n    }\r\n\r\n    receive() external payable {}\r\n}\r\n",
  "sourcePath": "C:\\Users\\rendr_eetxetv\\OneDrive\\rea de Trabalho\\Contract_StreamingChain\\contracts\\video.sol",
  "compiler": {
    "name": "solc",
    "version": "0.8.13+commit.abaa5c0e.Emscripten.clang"
  },
  "schemaVersion": "3.4.14",
  "updatedAt": "2023-08-29T00:52:40.471Z",
  "devdoc": {
    "kind": "dev",
    "methods": {},
    "version": 1
  },
  "userdoc": {
    "kind": "user",
    "methods": {},
    "version": 1
  }
}