{
  "contractName": "Video",
  "abi": [
    {
      "inputs": [
        {
          "internalType": "address payable",
          "name": "_contentCreatorAddress",
          "type": "address"
        },
        {
          "internalType": "uint256",
          "name": "_cpmValue",
          "type": "uint256"
        }
      ],
      "stateMutability": "payable",
      "type": "constructor",
      "payable": true
    },
    {
      "inputs": [],
      "name": "owner",
      "outputs": [
        {
          "internalType": "address payable",
          "name": "",
          "type": "address"
        }
      ],
      "stateMutability": "view",
      "type": "function",
      "constant": true
    },
    {
      "stateMutability": "payable",
      "type": "receive",
      "payable": true
    },
    {
      "inputs": [],
      "name": "getInfoVideo",
      "outputs": [
        {
          "components": [
            {
              "internalType": "uint256",
              "name": "totalViews",
              "type": "uint256"
            },
            {
              "internalType": "uint256",
              "name": "retentionRate",
              "type": "uint256"
            },
            {
              "internalType": "uint256",
              "name": "totalViewingTime",
              "type": "uint256"
            },
            {
              "internalType": "address payable",
              "name": "contentCreatorAddress",
              "type": "address"
            },
            {
              "internalType": "address payable",
              "name": "platformAddress",
              "type": "address"
            }
          ],
          "internalType": "struct videoStruct",
          "name": "",
          "type": "tuple"
        }
      ],
      "stateMutability": "view",
      "type": "function",
      "constant": true
    },
    {
      "inputs": [],
      "name": "getTotalView",
      "outputs": [
        {
          "internalType": "uint256",
          "name": "",
          "type": "uint256"
        }
      ],
      "stateMutability": "view",
      "type": "function",
      "constant": true
    },
    {
      "inputs": [],
      "name": "getRetentionRate",
      "outputs": [
        {
          "internalType": "uint256",
          "name": "",
          "type": "uint256"
        }
      ],
      "stateMutability": "view",
      "type": "function",
      "constant": true
    },
    {
      "inputs": [],
      "name": "getTotalViewingTime",
      "outputs": [
        {
          "internalType": "uint256",
          "name": "",
          "type": "uint256"
        }
      ],
      "stateMutability": "view",
      "type": "function",
      "constant": true
    },
    {
      "inputs": [
        {
          "internalType": "uint256",
          "name": "assistedTime",
          "type": "uint256"
        }
      ],
      "name": "updateInfoVideo",
      "outputs": [],
      "stateMutability": "nonpayable",
      "type": "function"
    },
    {
      "inputs": [
        {
          "internalType": "address payable",
          "name": "_accountAddress",
          "type": "address"
        },
        {
          "internalType": "uint256",
          "name": "_percent",
          "type": "uint256"
        }
      ],
      "name": "addTransfer",
      "outputs": [],
      "stateMutability": "nonpayable",
      "type": "function"
    },
    {
      "inputs": [],
      "name": "viewAccountsTransfer",
      "outputs": [
        {
          "components": [
            {
              "internalType": "address payable",
              "name": "accountAddress",
              "type": "address"
            },
            {
              "internalType": "uint256",
              "name": "percent",
              "type": "uint256"
            }
          ],
          "internalType": "struct transferManagement[]",
          "name": "",
          "type": "tuple[]"
        }
      ],
      "stateMutability": "view",
      "type": "function",
      "constant": true
    },
    {
      "inputs": [
        {
          "internalType": "address payable",
          "name": "_accountAddress",
          "type": "address"
        }
      ],
      "name": "removeTransferByAddress",
      "outputs": [],
      "stateMutability": "nonpayable",
      "type": "function"
    },
    {
      "inputs": [],
      "name": "balanceOf",
      "outputs": [
        {
          "internalType": "uint256",
          "name": "",
          "type": "uint256"
        }
      ],
      "stateMutability": "view",
      "type": "function",
      "constant": true
    },
    {
      "inputs": [],
      "name": "notifyLowBalance",
      "outputs": [
        {
          "internalType": "bool",
          "name": "",
          "type": "bool"
        }
      ],
      "stateMutability": "view",
      "type": "function",
      "constant": true
    }
  ],
  "bytecode": "0x60806040526000600155600060025560405162001936380380620019368339818101604052810190620000339190620001cf565b336000806101000a81548173ffffffffffffffffffffffffffffffffffffffff021916908373ffffffffffffffffffffffffffffffffffffffff160217905550600060036000018190555060006003600101819055506000600360020181905550816003800160006101000a81548173ffffffffffffffffffffffffffffffffffffffff021916908373ffffffffffffffffffffffffffffffffffffffff16021790555033600360040160006101000a81548173ffffffffffffffffffffffffffffffffffffffff021916908373ffffffffffffffffffffffffffffffffffffffff16021790555080600281905550505062000216565b600080fd5b600073ffffffffffffffffffffffffffffffffffffffff82169050919050565b60006200015c826200012f565b9050919050565b6200016e816200014f565b81146200017a57600080fd5b50565b6000815190506200018e8162000163565b92915050565b6000819050919050565b620001a98162000194565b8114620001b557600080fd5b50565b600081519050620001c9816200019e565b92915050565b60008060408385031215620001e957620001e86200012a565b5b6000620001f9858286016200017d565b92505060206200020c85828601620001b8565b9150509250929050565b61171080620002266000396000f3fe6080604052600436106100a05760003560e01c80637a372f6c116100645780637a372f6c146101815780638da5cb5b146101aa578063bcb377db146101d5578063cbbe89bf14610200578063ecceb9d514610229578063fcbc1c2b14610254576100a7565b80633ac07a2d146100ac5780634911ed5d146100d55780634a729b1a146101005780636cfee2c01461012b578063722713f714610156576100a7565b366100a757005b600080fd5b3480156100b857600080fd5b506100d360048036038101906100ce9190610edb565b61027f565b005b3480156100e157600080fd5b506100ea6104d4565b6040516100f7919061100e565b60405180910390f35b34801561010c57600080fd5b50610115610593565b604051610122919061104b565b60405180910390f35b34801561013757600080fd5b506101406105aa565b60405161014d91906110ce565b60405180910390f35b34801561016257600080fd5b5061016b61068e565b60405161017891906110f8565b60405180910390f35b34801561018d57600080fd5b506101a860048036038101906101a3919061113f565b610696565b005b3480156101b657600080fd5b506101bf6107c4565b6040516101cc919061117b565b60405180910390f35b3480156101e157600080fd5b506101ea6107e8565b6040516101f791906110f8565b60405180910390f35b34801561020c57600080fd5b5061022760048036038101906102229190611196565b6107f5565b005b34801561023557600080fd5b5061023e610ace565b60405161024b91906110f8565b60405180910390f35b34801561026057600080fd5b50610269610adb565b60405161027691906110f8565b60405180910390f35b60008054906101000a900473ffffffffffffffffffffffffffffffffffffffff1673ffffffffffffffffffffffffffffffffffffffff163373ffffffffffffffffffffffffffffffffffffffff161461030d576040517f08c379a000000000000000000000000000000000000000000000000000000000815260040161030490611233565b60405180910390fd5b60005b6008805490508110156104d0578173ffffffffffffffffffffffffffffffffffffffff166008828154811061034857610347611253565b5b906000526020600020906002020160000160009054906101000a900473ffffffffffffffffffffffffffffffffffffffff1673ffffffffffffffffffffffffffffffffffffffff16036104bd57600860016008805490506103a991906112b1565b815481106103ba576103b9611253565b5b9060005260206000209060020201600882815481106103dc576103db611253565b5b90600052602060002090600202016000820160009054906101000a900473ffffffffffffffffffffffffffffffffffffffff168160000160006101000a81548173ffffffffffffffffffffffffffffffffffffffff021916908373ffffffffffffffffffffffffffffffffffffffff1602179055506001820154816001015590505060088054806104705761046f6112e5565b5b6001900381819060005260206000209060020201600080820160006101000a81549073ffffffffffffffffffffffffffffffffffffffff02191690556001820160009055505090556104d0565b80806104c890611314565b915050610310565b5050565b60606008805480602002602001604051908101604052809291908181526020016000905b8282101561058a57838290600052602060002090600202016040518060400160405290816000820160009054906101000a900473ffffffffffffffffffffffffffffffffffffffff1673ffffffffffffffffffffffffffffffffffffffff1673ffffffffffffffffffffffffffffffffffffffff168152602001600182015481525050815260200190600101906104f8565b50505050905090565b600080670de0b6b3a7640000905080471091505090565b6105b2610e1d565b60036040518060a00160405290816000820154815260200160018201548152602001600282015481526020016003820160009054906101000a900473ffffffffffffffffffffffffffffffffffffffff1673ffffffffffffffffffffffffffffffffffffffff1673ffffffffffffffffffffffffffffffffffffffff1681526020016004820160009054906101000a900473ffffffffffffffffffffffffffffffffffffffff1673ffffffffffffffffffffffffffffffffffffffff1673ffffffffffffffffffffffffffffffffffffffff1681525050905090565b600047905090565b60008054906101000a900473ffffffffffffffffffffffffffffffffffffffff1673ffffffffffffffffffffffffffffffffffffffff163373ffffffffffffffffffffffffffffffffffffffff1614610724576040517f08c379a000000000000000000000000000000000000000000000000000000000815260040161071b90611233565b60405180910390fd5b60006001600360000154610738919061135c565b90506000818360036001015461074e919061135c565b61075891906113e1565b905060008360036002015461076d919061135c565b90508260036000018190555081600360010181905550806003600201819055506001805461079b919061135c565b6001819055506005600154036107be5760006001819055506107bd6001610ae8565b5b50505050565b60008054906101000a900473ffffffffffffffffffffffffffffffffffffffff1681565b6000600360020154905090565b60008054906101000a900473ffffffffffffffffffffffffffffffffffffffff1673ffffffffffffffffffffffffffffffffffffffff163373ffffffffffffffffffffffffffffffffffffffff1614610883576040517f08c379a000000000000000000000000000000000000000000000000000000000815260040161087a90611233565b60405180910390fd5b60648111156108c7576040517f08c379a00000000000000000000000000000000000000000000000000000000081526004016108be90611484565b60405180910390fd5b600081905060005b6008805490508110156109d557600881815481106108f0576108ef611253565b5b9060005260206000209060020201600101548261090d919061135c565b91506008818154811061092357610922611253565b5b906000526020600020906002020160000160009054906101000a900473ffffffffffffffffffffffffffffffffffffffff1673ffffffffffffffffffffffffffffffffffffffff168473ffffffffffffffffffffffffffffffffffffffff16036109c2576040517f08c379a00000000000000000000000000000000000000000000000000000000081526004016109b990611562565b60405180910390fd5b80806109cd90611314565b9150506108cf565b506064811115610a1a576040517f08c379a0000000000000000000000000000000000000000000000000000000008152600401610a11906115f4565b60405180910390fd5b600060405180604001604052808573ffffffffffffffffffffffffffffffffffffffff168152602001848152509050600881908060018154018082558091505060019003906000526020600020906002020160009091909190915060008201518160000160006101000a81548173ffffffffffffffffffffffffffffffffffffffff021916908373ffffffffffffffffffffffffffffffffffffffff16021790555060208201518160010155505050505050565b6000600360000154905090565b6000600360010154905090565b60008054906101000a900473ffffffffffffffffffffffffffffffffffffffff1673ffffffffffffffffffffffffffffffffffffffff163373ffffffffffffffffffffffffffffffffffffffff1614610b76576040517f08c379a0000000000000000000000000000000000000000000000000000000008152600401610b6d90611233565b60405180910390fd5b60008111610bb9576040517f08c379a0000000000000000000000000000000000000000000000000000000008152600401610bb090611660565b60405180910390fd5b6000805b600880549050811015610c105760088181548110610bde57610bdd611253565b5b90600052602060002090600202016001015482610bfb919061135c565b91508080610c0890611314565b915050610bbd565b506000805b600880549050811015610d5a57600060088281548110610c3857610c37611253565b5b90600052602060002090600202016040518060400160405290816000820160009054906101000a900473ffffffffffffffffffffffffffffffffffffffff1673ffffffffffffffffffffffffffffffffffffffff1673ffffffffffffffffffffffffffffffffffffffff1681526020016001820154815250509050600061271060648360200151600a89610ccc9190611680565b610cd69190611680565b610ce09190611680565b610cea91906113e1565b9050816000015173ffffffffffffffffffffffffffffffffffffffff166108fc829081150290604051600060405180830381858888f19350505050158015610d36573d6000803e3d6000fd5b508084610d43919061135c565b935050508080610d5290611314565b915050610c15565b506000826064610d6a91906112b1565b90506000811115610e17576000612710606483600a88610d8a9190611680565b610d949190611680565b610d9e9190611680565b610da891906113e1565b90506003800160009054906101000a900473ffffffffffffffffffffffffffffffffffffffff1673ffffffffffffffffffffffffffffffffffffffff166108fc829081150290604051600060405180830381858888f19350505050158015610e14573d6000803e3d6000fd5b50505b50505050565b6040518060a00160405280600081526020016000815260200160008152602001600073ffffffffffffffffffffffffffffffffffffffff168152602001600073ffffffffffffffffffffffffffffffffffffffff1681525090565b600080fd5b600073ffffffffffffffffffffffffffffffffffffffff82169050919050565b6000610ea882610e7d565b9050919050565b610eb881610e9d565b8114610ec357600080fd5b50565b600081359050610ed581610eaf565b92915050565b600060208284031215610ef157610ef0610e78565b5b6000610eff84828501610ec6565b91505092915050565b600081519050919050565b600082825260208201905092915050565b6000819050602082019050919050565b610f3d81610e9d565b82525050565b6000819050919050565b610f5681610f43565b82525050565b604082016000820151610f726000850182610f34565b506020820151610f856020850182610f4d565b50505050565b6000610f978383610f5c565b60408301905092915050565b6000602082019050919050565b6000610fbb82610f08565b610fc58185610f13565b9350610fd083610f24565b8060005b83811015611001578151610fe88882610f8b565b9750610ff383610fa3565b925050600181019050610fd4565b5085935050505092915050565b600060208201905081810360008301526110288184610fb0565b905092915050565b60008115159050919050565b61104581611030565b82525050565b6000602082019050611060600083018461103c565b92915050565b60a08201600082015161107c6000850182610f4d565b50602082015161108f6020850182610f4d565b5060408201516110a26040850182610f4d565b5060608201516110b56060850182610f34565b5060808201516110c86080850182610f34565b50505050565b600060a0820190506110e36000830184611066565b92915050565b6110f281610f43565b82525050565b600060208201905061110d60008301846110e9565b92915050565b61111c81610f43565b811461112757600080fd5b50565b60008135905061113981611113565b92915050565b60006020828403121561115557611154610e78565b5b60006111638482850161112a565b91505092915050565b61117581610e9d565b82525050565b6000602082019050611190600083018461116c565b92915050565b600080604083850312156111ad576111ac610e78565b5b60006111bb85828601610ec6565b92505060206111cc8582860161112a565b9150509250929050565b600082825260208201905092915050565b7f566f6365206e616f206520646f6e6f20646f20636f6e747261746f0000000000600082015250565b600061121d601b836111d6565b9150611228826111e7565b602082019050919050565b6000602082019050818103600083015261124c81611210565b9050919050565b7f4e487b7100000000000000000000000000000000000000000000000000000000600052603260045260246000fd5b7f4e487b7100000000000000000000000000000000000000000000000000000000600052601160045260246000fd5b60006112bc82610f43565b91506112c783610f43565b9250828210156112da576112d9611282565b5b828203905092915050565b7f4e487b7100000000000000000000000000000000000000000000000000000000600052603160045260246000fd5b600061131f82610f43565b91507fffffffffffffffffffffffffffffffffffffffffffffffffffffffffffffffff820361135157611350611282565b5b600182019050919050565b600061136782610f43565b915061137283610f43565b9250827fffffffffffffffffffffffffffffffffffffffffffffffffffffffffffffffff038211156113a7576113a6611282565b5b828201905092915050565b7f4e487b7100000000000000000000000000000000000000000000000000000000600052601260045260246000fd5b60006113ec82610f43565b91506113f783610f43565b925082611407576114066113b2565b5b828204905092915050565b7f4120706f7263656e746167656d206e616f20706f646520736572206d61696f7260008201527f2071756520313030000000000000000000000000000000000000000000000000602082015250565b600061146e6028836111d6565b915061147982611412565b604082019050919050565b6000602082019050818103600083015261149d81611461565b9050919050565b7f4120636f6e7461206573636f6c68696461206a6120706f737375692076616c6f60008201527f726573206465207472616e73666572656e636961207265676973747261646f7360208201527f2e20506172612061646963696f6e617220756d206e6f766f2076616c6f72207260408201527f656d6f7661206f2076616c6f7220616e746572696f7220000000000000000000606082015250565b600061154c6077836111d6565b9150611557826114a4565b608082019050919050565b6000602082019050818103600083015261157b8161153f565b9050919050565b7f4f20746f74616c20646520706f7263656e746167656d206568206d61696f722060008201527f3130300000000000000000000000000000000000000000000000000000000000602082015250565b60006115de6023836111d6565b91506115e982611582565b604082019050919050565b6000602082019050818103600083015261160d816115d1565b9050919050565b7f4f2076616c6f72207072656369736120736572206d61696f7220717565203000600082015250565b600061164a601f836111d6565b915061165582611614565b602082019050919050565b600060208201905081810360008301526116798161163d565b9050919050565b600061168b82610f43565b915061169683610f43565b9250817fffffffffffffffffffffffffffffffffffffffffffffffffffffffffffffffff04831182151516156116cf576116ce611282565b5b82820290509291505056fea2646970667358221220dcef1d95d82a8e5a6815efdf084c9f39dfad82b2c42b17f034d0c233c650bd5b64736f6c634300080d0033",
  "immutableReferences": {},
  "source": "// SPDX-License-Identifier: MIT\r\n\r\npragma solidity >=0.8.13;\r\n\r\nstruct transferManagement {\r\n    address payable accountAddress;\r\n    uint percent;\r\n}\r\n\r\nstruct videoStruct {\r\n    uint totalViews;\r\n    uint retentionRate;\r\n    uint totalViewingTime;\r\n    address payable contentCreatorAddress;\r\n    address payable platformAddress;\r\n}\r\n\r\ncontract Video{\r\n    address payable public owner;\r\n    uint thousandthView = 0;\r\n    uint cpm = 0;\r\n    videoStruct videoData;\r\n    transferManagement[] listAccountTransfer;\r\n\r\n    constructor(address payable _contentCreatorAddress, uint _cpmValue) payable{\r\n        owner = payable(msg.sender);\r\n        videoData.totalViews = 0;\r\n        videoData.retentionRate = 0;\r\n        videoData.totalViewingTime = 0;\r\n        videoData.contentCreatorAddress = payable(_contentCreatorAddress);\r\n        videoData.platformAddress = payable(msg.sender);\r\n        cpm = _cpmValue;\r\n    }\r\n\r\n    modifier onlyBy(){\r\n        require(msg.sender == owner, \"Voce nao e dono do contrato\");\r\n        _;\r\n    }\r\n\r\n\r\n    function getInfoVideo() public view returns (videoStruct memory){\r\n        return videoData;\r\n    }\r\n\r\n    function getTotalView() public view returns(uint){\r\n        return videoData.totalViews;\r\n    }\r\n\r\n    function getRetentionRate() public view returns(uint){\r\n        return videoData.retentionRate;\r\n    }\r\n\r\n    function getTotalViewingTime() public view returns(uint){\r\n        return videoData.totalViewingTime;\r\n    }\r\n\r\n    function updateInfoVideo(uint assistedTime ) public onlyBy{\r\n        uint _totalview = videoData.totalViews + 1;\r\n        uint _retentionRate = (videoData.retentionRate + assistedTime) / _totalview;\r\n        uint _totalViewingTime = videoData.totalViewingTime + assistedTime;\r\n\r\n        videoData.totalViews = _totalview;\r\n        videoData.retentionRate = _retentionRate;\r\n        videoData.totalViewingTime = _totalViewingTime;\r\n\r\n        thousandthView = thousandthView + 1;\r\n\r\n        if( thousandthView == 5 ){\r\n            thousandthView = 0;\r\n            makePayment(1);\r\n        }\r\n    }\r\n\r\n    function addTransfer(address payable _accountAddress, uint _percent) public onlyBy{\r\n        require(_percent <= 100, \"A porcentagem nao pode ser maior que 100\");\r\n    \r\n        uint newTotalPercent = _percent;\r\n        for (uint i = 0; i < listAccountTransfer.length; i++) {\r\n            newTotalPercent += listAccountTransfer[i].percent;\r\n            require(_accountAddress != listAccountTransfer[i].accountAddress, \"A conta escolhida ja possui valores de transferencia registrados. Para adicionar um novo valor remova o valor anterior \");\r\n        }\r\n        \r\n        require(newTotalPercent <= 100, \"O total de porcentagem eh maior 100\");\r\n        \r\n        transferManagement memory newTransfer = transferManagement(_accountAddress, _percent);\r\n        listAccountTransfer.push(newTransfer);\r\n    }\r\n\r\n    function viewAccountsTransfer() public view returns (transferManagement[] memory) {\r\n        return listAccountTransfer;\r\n    }\r\n\r\n    function removeTransferByAddress(address payable _accountAddress) public onlyBy{\r\n        for (uint i = 0; i < listAccountTransfer.length; i++) {\r\n            if (listAccountTransfer[i].accountAddress == _accountAddress) {\r\n                \r\n                listAccountTransfer[i] = listAccountTransfer[listAccountTransfer.length - 1];\r\n                \r\n                listAccountTransfer.pop();\r\n                \r\n                break;\r\n            }\r\n        }\r\n    }\r\n\r\n    function makePayment(uint _value) private onlyBy {\r\n        require(_value > 0, \"O valor precisa ser maior que 0\");\r\n\r\n        uint totalPercent = 0;\r\n\r\n        for (uint i = 0; i < listAccountTransfer.length; i++) {\r\n            totalPercent += listAccountTransfer[i].percent;\r\n        }\r\n\r\n        uint totalPayments = 0;\r\n\r\n        for (uint i = 0; i < listAccountTransfer.length; i++) {\r\n            transferManagement memory transfer = listAccountTransfer[i];\r\n            uint paymentAmount = (_value * 10 * transfer.percent * 100) / 10000;\r\n\r\n            transfer.accountAddress.transfer(paymentAmount);\r\n            totalPayments += paymentAmount;\r\n        }\r\n\r\n        uint remainingPercent = 100 - totalPercent;\r\n\r\n        if (remainingPercent > 0) {\r\n            uint remainingValue = (_value * 10 * remainingPercent * 100) / 10000;\r\n\r\n            videoData.contentCreatorAddress.transfer(remainingValue);\r\n        }\r\n    }\r\n    \r\n    \r\n    function balanceOf() public view returns(uint){\r\n        return address(this).balance;\r\n    }\r\n\r\n    function notifyLowBalance() public view returns (bool) {\r\n        uint threshold = 1 ether;\r\n        return address(this).balance < threshold;\r\n    }\r\n\r\n    receive() external payable { }\r\n\r\n}",
  "sourcePath": "C:\\Users\\rendr_eetxetv\\OneDrive\\rea de Trabalho\\Contract_StreamingChain\\contracts\\video.sol",
  "compiler": {
    "name": "solc",
    "version": "0.8.13+commit.abaa5c0e.Emscripten.clang"
  },
  "schemaVersion": "3.4.14",
  "updatedAt": "2023-08-30T23:34:38.140Z",
  "networkType": "ethereum",
  "devdoc": {
    "kind": "dev",
    "methods": {},
    "version": 1
  },
  "userdoc": {
    "kind": "user",
    "methods": {},
    "version": 1
  }
}